{
  "contractName": "MultiSignatureWallet",
  "abi": [
    {
      "constant": true,
      "inputs": [
        {
          "name": "",
          "type": "uint256"
        }
      ],
      "name": "owners",
      "outputs": [
        {
          "name": "",
          "type": "address"
        }
      ],
      "payable": false,
      "stateMutability": "view",
      "type": "function"
    },
    {
      "constant": true,
      "inputs": [
        {
          "name": "",
          "type": "address"
        }
      ],
      "name": "isOwner",
      "outputs": [
        {
          "name": "",
          "type": "bool"
        }
      ],
      "payable": false,
      "stateMutability": "view",
      "type": "function"
    },
    {
      "constant": true,
      "inputs": [
        {
          "name": "",
          "type": "uint256"
        },
        {
          "name": "",
          "type": "address"
        }
      ],
      "name": "confirmations",
      "outputs": [
        {
          "name": "",
          "type": "bool"
        }
      ],
      "payable": false,
      "stateMutability": "view",
      "type": "function"
    },
    {
      "constant": true,
      "inputs": [
        {
          "name": "",
          "type": "uint256"
        }
      ],
      "name": "transactions",
      "outputs": [
        {
          "name": "executed",
          "type": "bool"
        },
        {
          "name": "destination",
          "type": "address"
        },
        {
          "name": "value",
          "type": "uint256"
        },
        {
          "name": "data",
          "type": "bytes"
        }
      ],
      "payable": false,
      "stateMutability": "view",
      "type": "function"
    },
    {
      "constant": true,
      "inputs": [],
      "name": "transactionCount",
      "outputs": [
        {
          "name": "",
          "type": "uint256"
        }
      ],
      "payable": false,
      "stateMutability": "view",
      "type": "function"
    },
    {
      "constant": true,
      "inputs": [],
      "name": "required",
      "outputs": [
        {
          "name": "",
          "type": "uint256"
        }
      ],
      "payable": false,
      "stateMutability": "view",
      "type": "function"
    },
    {
      "inputs": [
        {
          "name": "_owners",
          "type": "address[]"
        },
        {
          "name": "_required",
          "type": "uint256"
        }
      ],
      "payable": false,
      "stateMutability": "nonpayable",
      "type": "constructor"
    },
    {
      "payable": true,
      "stateMutability": "payable",
      "type": "fallback"
    },
    {
      "anonymous": false,
      "inputs": [
        {
          "indexed": true,
          "name": "transactionId",
          "type": "uint256"
        }
      ],
      "name": "Submission",
      "type": "event"
    },
    {
      "anonymous": false,
      "inputs": [
        {
          "indexed": true,
          "name": "sender",
          "type": "address"
        },
        {
          "indexed": true,
          "name": "transactionId",
          "type": "uint256"
        }
      ],
      "name": "Confirmation",
      "type": "event"
    },
    {
      "anonymous": false,
      "inputs": [
        {
          "indexed": true,
          "name": "transactinId",
          "type": "uint256"
        }
      ],
      "name": "Execution",
      "type": "event"
    },
    {
      "anonymous": false,
      "inputs": [
        {
          "indexed": true,
          "name": "transactinId",
          "type": "uint256"
        }
      ],
      "name": "ExectionFailiure",
      "type": "event"
    },
    {
      "constant": false,
      "inputs": [
        {
          "name": "destination",
          "type": "address"
        },
        {
          "name": "value",
          "type": "uint256"
        },
        {
          "name": "data",
          "type": "bytes"
        }
      ],
      "name": "submitTransaction",
      "outputs": [
        {
          "name": "transactionId",
          "type": "uint256"
        }
      ],
      "payable": false,
      "stateMutability": "nonpayable",
      "type": "function"
    },
    {
      "constant": false,
      "inputs": [
        {
          "name": "transactionId",
          "type": "uint256"
        }
      ],
      "name": "confirmTransaction",
      "outputs": [],
      "payable": false,
      "stateMutability": "nonpayable",
      "type": "function"
    },
    {
      "constant": false,
      "inputs": [
        {
          "name": "transactionId",
          "type": "uint256"
        }
      ],
      "name": "revokeConfirmation",
      "outputs": [],
      "payable": false,
      "stateMutability": "nonpayable",
      "type": "function"
    },
    {
      "constant": false,
      "inputs": [
        {
          "name": "transactionId",
          "type": "uint256"
        }
      ],
      "name": "executeTransaction",
      "outputs": [],
      "payable": false,
      "stateMutability": "nonpayable",
      "type": "function"
    }
  ],
  "bytecode": "0x60806040523480156200001157600080fd5b5060405162000e9838038062000e98833981018060405260408110156200003757600080fd5b8101908080516401000000008111156200005057600080fd5b828101905060208101848111156200006757600080fd5b81518560208202830111640100000000821117156200008557600080fd5b50509291906020018051906020019092919050505081518181811080620000ac5750600081145b80620000b85750600082145b15620000c357600080fd5b60008090505b84518110156200014d57600160026000878481518110620000e657fe5b602002602001015173ffffffffffffffffffffffffffffffffffffffff1673ffffffffffffffffffffffffffffffffffffffff16815260200190815260200160002060006101000a81548160ff0219169083151502179055508080600101915050620000c9565b5083600090805190602001906200016692919062000178565b5082600181905550505050506200024d565b828054828255906000526020600020908101928215620001f4579160200282015b82811115620001f35782518260006101000a81548173ffffffffffffffffffffffffffffffffffffffff021916908373ffffffffffffffffffffffffffffffffffffffff1602179055509160200191906001019062000199565b5b50905062000203919062000207565b5090565b6200024a91905b808211156200024657600081816101000a81549073ffffffffffffffffffffffffffffffffffffffff0219169055506001016200020e565b5090565b90565b610c3b806200025d6000396000f3fe6080604052600436106100915760003560e01c8063b77bf60011610059578063b77bf6001461031e578063c01a8c8414610349578063c642747414610384578063dc8452cd1461048a578063ee22610b146104b557610091565b8063025e7c271461009357806320ea8d861461010e5780632f54bf6e146101495780633411c81c146101b25780639ace38c214610225575b005b34801561009f57600080fd5b506100cc600480360360208110156100b657600080fd5b81019080803590602001909291905050506104f0565b604051808273ffffffffffffffffffffffffffffffffffffffff1673ffffffffffffffffffffffffffffffffffffffff16815260200191505060405180910390f35b34801561011a57600080fd5b506101476004803603602081101561013157600080fd5b810190808035906020019092919050505061052c565b005b34801561015557600080fd5b506101986004803603602081101561016c57600080fd5b81019080803573ffffffffffffffffffffffffffffffffffffffff16906020019092919050505061052f565b604051808215151515815260200191505060405180910390f35b3480156101be57600080fd5b5061020b600480360360408110156101d557600080fd5b8101908080359060200190929190803573ffffffffffffffffffffffffffffffffffffffff16906020019092919050505061054f565b604051808215151515815260200191505060405180910390f35b34801561023157600080fd5b5061025e6004803603602081101561024857600080fd5b810190808035906020019092919050505061057e565b60405180851515151581526020018473ffffffffffffffffffffffffffffffffffffffff1673ffffffffffffffffffffffffffffffffffffffff16815260200183815260200180602001828103825283818151815260200191508051906020019080838360005b838110156102e05780820151818401526020810190506102c5565b50505050905090810190601f16801561030d5780820380516001836020036101000a031916815260200191505b509550505050505060405180910390f35b34801561032a57600080fd5b50610333610673565b6040518082815260200191505060405180910390f35b34801561035557600080fd5b506103826004803603602081101561036c57600080fd5b8101908080359060200190929190505050610679565b005b34801561039057600080fd5b50610474600480360360608110156103a757600080fd5b81019080803573ffffffffffffffffffffffffffffffffffffffff16906020019092919080359060200190929190803590602001906401000000008111156103ee57600080fd5b82018360208201111561040057600080fd5b8035906020019184600183028401116401000000008311171561042257600080fd5b91908080601f016020809104026020016040519081016040528093929190818152602001838380828437600081840152601f19601f820116905080830192505050505050509192919290505050610866565b6040518082815260200191505060405180910390f35b34801561049657600080fd5b5061049f6108db565b6040518082815260200191505060405180910390f35b3480156104c157600080fd5b506104ee600480360360208110156104d857600080fd5b81019080803590602001909291905050506108e1565b005b600081815481106104fd57fe5b906000526020600020016000915054906101000a900473ffffffffffffffffffffffffffffffffffffffff1681565b50565b60026020528060005260406000206000915054906101000a900460ff1681565b60056020528160005260406000206020528060005260406000206000915091509054906101000a900460ff1681565b60046020528060005260406000206000915090508060000160009054906101000a900460ff16908060000160019054906101000a900473ffffffffffffffffffffffffffffffffffffffff1690806001015490806002018054600181600116156101000203166002900480601f0160208091040260200160405190810160405280929190818152602001828054600181600116156101000203166002900480156106695780601f1061063e57610100808354040283529160200191610669565b820191906000526020600020905b81548152906001019060200180831161064c57829003601f168201915b5050505050905084565b60035481565b600260003373ffffffffffffffffffffffffffffffffffffffff1673ffffffffffffffffffffffffffffffffffffffff16815260200190815260200160002060009054906101000a900460ff166106cf57600080fd5b600073ffffffffffffffffffffffffffffffffffffffff166004600083815260200190815260200160002060000160019054906101000a900473ffffffffffffffffffffffffffffffffffffffff1673ffffffffffffffffffffffffffffffffffffffff16141561073f57600080fd5b600015156005600083815260200190815260200160002060003373ffffffffffffffffffffffffffffffffffffffff1673ffffffffffffffffffffffffffffffffffffffff16815260200190815260200160002060009054906101000a900460ff161515146107ad57600080fd5b60016005600083815260200190815260200160002060003373ffffffffffffffffffffffffffffffffffffffff1673ffffffffffffffffffffffffffffffffffffffff16815260200190815260200160002060006101000a81548160ff021916908315150217905550803373ffffffffffffffffffffffffffffffffffffffff167f4a504a94899432a9846e1aa406dceb1bcfd538bb839071d49d1e5e23f5be30ef60405160405180910390a3610863816108e1565b50565b6000600260003373ffffffffffffffffffffffffffffffffffffffff1673ffffffffffffffffffffffffffffffffffffffff16815260200190815260200160002060009054906101000a900460ff166108be57600080fd5b6108c984848461095c565b90506108d481610679565b9392505050565b60015481565b600015156004600083815260200190815260200160002060000160009054906101000a900460ff1615151461091557600080fd5b61091e81610a86565b1561095957600060046000838152602001908152602001600020905060018160000160006101000a81548160ff021916908315150217905550505b50565b6000600354905060405180608001604052806000151581526020018573ffffffffffffffffffffffffffffffffffffffff168152602001848152602001838152506004600083815260200190815260200160002060008201518160000160006101000a81548160ff02191690831515021790555060208201518160000160016101000a81548173ffffffffffffffffffffffffffffffffffffffff021916908373ffffffffffffffffffffffffffffffffffffffff160217905550604082015181600101556060820151816002019080519060200190610a3d929190610b6a565b509050506001600360008282540192505081905550807fc0ba8fe4b176c1714197d43b9cc6bcf797a4a7461c5fe8d0ef6e184ae7601e5160405160405180910390a29392505050565b6000806000905060008090505b600080549050811015610b6257600560008581526020019081526020016000206000808381548110610ac157fe5b9060005260206000200160009054906101000a900473ffffffffffffffffffffffffffffffffffffffff1673ffffffffffffffffffffffffffffffffffffffff1673ffffffffffffffffffffffffffffffffffffffff16815260200190815260200160002060009054906101000a900460ff1615610b40576001820191505b600154821415610b5557600192505050610b65565b8080600101915050610a93565b50505b919050565b828054600181600116156101000203166002900490600052602060002090601f016020900481019282601f10610bab57805160ff1916838001178555610bd9565b82800160010185558215610bd9579182015b82811115610bd8578251825591602001919060010190610bbd565b5b509050610be69190610bea565b5090565b610c0c91905b80821115610c08576000816000905550600101610bf0565b5090565b9056fea165627a7a72305820d468ec1f90bee31fcc3a56ade9f1c050360080a834e4ff7522394c2374e93b5a0029",
  "source": "pragma solidity ^0.5.0;\n\ncontract MultiSignatureWallet{\n    // state variables\n    address[] public owners;\n    uint public required;\n    mapping (address => bool) public isOwner;\n    uint public transactionCount;\n    mapping (uint => Transaction) public transactions;\n    mapping (uint => mapping (address => bool)) public confirmations;\n\n    // Events\n    event Submission(uint indexed transactionId);\n    event Confirmation(address indexed sender, uint indexed transactionId);\n    event Execution(uint indexed transactinId);\n    event ExectionFailiure(uint indexed transactinId);\n\n    struct Transaction{\n        bool executed;\n        address destination;\n        uint value;\n        bytes data;\n    }\n    \n    // modifier\n    ///@dev Modifier for requirement settings for contract.\n    ///@param ownerCount Count of owners for wallet.\n    ///@param _required Thereshold count for the Wallet.\n    modifier validRequirement(uint ownerCount, uint _required){\n        if ( _required < ownerCount || _required == 0 || ownerCount == 0)\n            revert();\n        _;\n    }\n    \n    ///@dev Fallback function, which accepts ether when sent to contract\n    function() external payable{}\n    \n    /*\n     * Public Functions \n     */\n     \n    ///@dev Contract constructor sets intial owners and required number of confirmations.\n    ///@param _owners List of intial owners.\n    ///@param _required Number of required confirmations.\n    constructor(address[] memory _owners, uint _required) public validRequirement(_owners.length, _required) {\n        for (uint i=0; i<_owners.length; i++){\n            isOwner[_owners[i]] = true; \n        }\n        owners = _owners;\n        required = _required;\n    }\n    \n    ///@dev Allows an owner to submit and confirm a Transaction.\n    ///@param destination Transaction target address.\n    ///@param value Transaction ether value.\n    ///@param data Transaction data payload.\n    ///@return Returns Transaction ID.\n    function submitTransaction(address destination, uint value, bytes memory data) public returns (uint transactionId){\n        require(isOwner[msg.sender]);\n        transactionId = addTransaction(destination, value, data);\n        confirmTransaction(transactionId);\n    }\n    \n    ///@dev Allows an owner to confirm a transaciton.\n    ///@param transactionId Transaction ID.\n    function confirmTransaction(uint transactionId) public {\n    require(isOwner[msg.sender]);\n    require(transactions[transactionId].destination != address(0));\n    require(confirmations[transactionId][msg.sender] == false);\n    confirmations[transactionId][msg.sender] = true;\n    emit Confirmation(msg.sender, transactionId);\n    executeTransaction(transactionId);\n    }\n    \n    ///@dev Allows an owner to revoke a confirmation for a transaction.\n    ///@param transactionId Transaction ID.\n    function revokeConfirmation(uint transactionId) public {}\n    \n    ///@dev Allows anyone to execute a confirmed transaction.\n    ///@param transactionId Transaciton ID.\n    function executeTransaction(uint transactionId) public {\n        require(transactions[transactionId].executed == false);\n        if(isConfirmed(transactionId)){\n            Transaction storage t = transactions[transactionId];\n            t.executed= true;\n            // (bool success, bytes memory returnedData) = t.destination.send(t.value)(t.data);\n            // if (success)\n            //     emit Execution(transactionId);\n            \n            // else {\n            //     emit ExectionFailiure(transactionId);\n            //     t.executed = false;\n            // }\n        }\n    }\n    \n    \n        /*\n         * (Possible) Helper Function\n         */\n         \n         \n    ///@dev Returns the confirmation status of a transaction.\n    ///@param transactionId Transaction ID.\n    ///@return Confirmation status.\n    function isConfirmed(uint transactionId) internal view returns (bool){\n        uint count = 0;\n        for (uint i=0; i< owners.length; i++){\n            if(confirmations[transactionId][owners[i]])\n                count += 1;\n            if(count == required)\n                return true;\n        }\n    }\n\n    ///@dev Adds a new transaction to the transaction mapping, if transaction does not exist yet.\n    ///@param destination Transaction target address.\n    ///@param value Transaction ether value.\n    ///@param data Transaction data payload.\n    ///@return Returns transaction ID.\n    function addTransaction(address destination, uint value, bytes memory data) internal returns (uint transactionId) {\n        transactionId = transactionCount;\n        transactions[transactionId] = Transaction({\n            destination: destination,\n            value: value,\n            data: data,\n            executed: false\n        });\n        transactionCount+=1;\n        emit Submission(transactionId);\n    }\n}",
  "sourcePath": "/home/sanchaymittal/MultiSignatureWallet/contracts/MultiSignatureWallet.sol",
  "compiler": {
    "name": "solc",
    "version": "0.5.8+commit.23d335f2.Emscripten.clang"
  },
  "schemaVersion": "3.0.11",
  "updatedAt": "2019-06-24T16:30:27.399Z",
  "devdoc": {
    "methods": {
      "confirmTransaction(uint256)": {
        "details": "Allows an owner to confirm a transaciton.",
        "params": {
          "transactionId": "Transaction ID."
        }
      },
      "constructor": {
        "details": "Contract constructor sets intial owners and required number of confirmations.",
        "params": {
          "_owners": "List of intial owners.",
          "_required": "Number of required confirmations."
        }
      },
      "executeTransaction(uint256)": {
        "details": "Allows anyone to execute a confirmed transaction.",
        "params": {
          "transactionId": "Transaciton ID."
        }
      },
      "revokeConfirmation(uint256)": {
        "details": "Allows an owner to revoke a confirmation for a transaction.",
        "params": {
          "transactionId": "Transaction ID."
        }
      },
      "submitTransaction(address,uint256,bytes)": {
        "details": "Allows an owner to submit and confirm a Transaction.",
        "params": {
          "data": "Transaction data payload.",
          "destination": "Transaction target address.",
          "value": "Transaction ether value."
        },
        "return": "Returns Transaction ID."
      }
    }
  },
  "userdoc": {
    "methods": {}
  }
}